{
  "contractName": "Polymarket",
  "abi": [
    {
      "inputs": [
        {
          "internalType": "address",
          "name": "_polyToken",
          "type": "address"
        }
      ],
      "stateMutability": "nonpayable",
      "type": "constructor"
    },
    {
      "anonymous": false,
      "inputs": [
        {
          "indexed": false,
          "internalType": "uint256",
          "name": "id",
          "type": "uint256"
        },
        {
          "indexed": false,
          "internalType": "string",
          "name": "market",
          "type": "string"
        },
        {
          "indexed": false,
          "internalType": "uint256",
          "name": "timestamp",
          "type": "uint256"
        },
        {
          "indexed": false,
          "internalType": "address",
          "name": "createdBy",
          "type": "address"
        },
        {
          "indexed": false,
          "internalType": "string",
          "name": "creatorImageHash",
          "type": "string"
        },
        {
          "indexed": false,
          "internalType": "uint256",
          "name": "totalAmount",
          "type": "uint256"
        },
        {
          "indexed": false,
          "internalType": "uint256",
          "name": "totalYesAmount",
          "type": "uint256"
        },
        {
          "indexed": false,
          "internalType": "uint256",
          "name": "totalNoAmount",
          "type": "uint256"
        }
      ],
      "name": "MarketCreated",
      "type": "event"
    },
    {
      "inputs": [
        {
          "internalType": "uint256",
          "name": "",
          "type": "uint256"
        }
      ],
      "name": "markets",
      "outputs": [
        {
          "internalType": "uint256",
          "name": "id",
          "type": "uint256"
        },
        {
          "internalType": "string",
          "name": "market",
          "type": "string"
        },
        {
          "internalType": "uint256",
          "name": "timestamp",
          "type": "uint256"
        },
        {
          "internalType": "uint256",
          "name": "endTimestamp",
          "type": "uint256"
        },
        {
          "internalType": "address",
          "name": "createdBy",
          "type": "address"
        },
        {
          "internalType": "string",
          "name": "creatorImageHash",
          "type": "string"
        },
        {
          "internalType": "uint256",
          "name": "totalAmount",
          "type": "uint256"
        },
        {
          "internalType": "uint256",
          "name": "totalYesAmount",
          "type": "uint256"
        },
        {
          "internalType": "uint256",
          "name": "totalNoAmount",
          "type": "uint256"
        },
        {
          "internalType": "bool",
          "name": "eventCompleted",
          "type": "bool"
        },
        {
          "internalType": "string",
          "name": "description",
          "type": "string"
        },
        {
          "internalType": "string",
          "name": "resolverUrl",
          "type": "string"
        }
      ],
      "stateMutability": "view",
      "type": "function"
    },
    {
      "inputs": [],
      "name": "owner",
      "outputs": [
        {
          "internalType": "address",
          "name": "",
          "type": "address"
        }
      ],
      "stateMutability": "view",
      "type": "function"
    },
    {
      "inputs": [],
      "name": "polyToken",
      "outputs": [
        {
          "internalType": "address",
          "name": "",
          "type": "address"
        }
      ],
      "stateMutability": "view",
      "type": "function"
    },
    {
      "inputs": [],
      "name": "totalMarkets",
      "outputs": [
        {
          "internalType": "uint256",
          "name": "",
          "type": "uint256"
        }
      ],
      "stateMutability": "view",
      "type": "function"
    },
    {
      "inputs": [
        {
          "internalType": "uint256",
          "name": "",
          "type": "uint256"
        }
      ],
      "name": "winningAddresses",
      "outputs": [
        {
          "internalType": "address",
          "name": "",
          "type": "address"
        }
      ],
      "stateMutability": "view",
      "type": "function"
    },
    {
      "inputs": [
        {
          "internalType": "address",
          "name": "",
          "type": "address"
        }
      ],
      "name": "winningAmount",
      "outputs": [
        {
          "internalType": "uint256",
          "name": "",
          "type": "uint256"
        }
      ],
      "stateMutability": "view",
      "type": "function"
    },
    {
      "inputs": [
        {
          "internalType": "string",
          "name": "_market",
          "type": "string"
        },
        {
          "internalType": "string",
          "name": "_creatorImageHash",
          "type": "string"
        },
        {
          "internalType": "string",
          "name": "_description",
          "type": "string"
        },
        {
          "internalType": "string",
          "name": "_resolverUrl",
          "type": "string"
        },
        {
          "internalType": "uint256",
          "name": "_endTimestamp",
          "type": "uint256"
        }
      ],
      "name": "createMarket",
      "outputs": [],
      "stateMutability": "nonpayable",
      "type": "function"
    },
    {
      "inputs": [
        {
          "internalType": "uint256",
          "name": "_marketId",
          "type": "uint256"
        },
        {
          "internalType": "uint256",
          "name": "_value",
          "type": "uint256"
        }
      ],
      "name": "addYesBet",
      "outputs": [],
      "stateMutability": "payable",
      "type": "function"
    },
    {
      "inputs": [
        {
          "internalType": "uint256",
          "name": "_marketId",
          "type": "uint256"
        },
        {
          "internalType": "uint256",
          "name": "_value",
          "type": "uint256"
        }
      ],
      "name": "addNoBet",
      "outputs": [],
      "stateMutability": "payable",
      "type": "function"
    },
    {
      "inputs": [
        {
          "internalType": "uint256",
          "name": "_marketId",
          "type": "uint256"
        }
      ],
      "name": "getGraphData",
      "outputs": [
        {
          "components": [
            {
              "internalType": "address",
              "name": "user",
              "type": "address"
            },
            {
              "internalType": "uint256",
              "name": "amount",
              "type": "uint256"
            },
            {
              "internalType": "uint256",
              "name": "timestamp",
              "type": "uint256"
            }
          ],
          "internalType": "struct Polymarket.AmountAdded[]",
          "name": "",
          "type": "tuple[]"
        },
        {
          "components": [
            {
              "internalType": "address",
              "name": "user",
              "type": "address"
            },
            {
              "internalType": "uint256",
              "name": "amount",
              "type": "uint256"
            },
            {
              "internalType": "uint256",
              "name": "timestamp",
              "type": "uint256"
            }
          ],
          "internalType": "struct Polymarket.AmountAdded[]",
          "name": "",
          "type": "tuple[]"
        }
      ],
      "stateMutability": "view",
      "type": "function"
    },
    {
      "inputs": [
        {
          "internalType": "uint256",
          "name": "_marketId",
          "type": "uint256"
        },
        {
          "internalType": "bool",
          "name": "eventOutcome",
          "type": "bool"
        }
      ],
      "name": "distributeWinningAmount",
      "outputs": [],
      "stateMutability": "payable",
      "type": "function"
    }
  ],
  "bytecode": "0x608060405260006002553480156200001657600080fd5b506040516200238c3803806200238c83398181016040528101906200003c91906200012e565b336000806101000a81548173ffffffffffffffffffffffffffffffffffffffff021916908373ffffffffffffffffffffffffffffffffffffffff16021790555080600160006101000a81548173ffffffffffffffffffffffffffffffffffffffff021916908373ffffffffffffffffffffffffffffffffffffffff1602179055505062000160565b600080fd5b600073ffffffffffffffffffffffffffffffffffffffff82169050919050565b6000620000f682620000c9565b9050919050565b6200010881620000e9565b81146200011457600080fd5b50565b6000815190506200012881620000fd565b92915050565b600060208284031215620001475762000146620000c4565b5b6000620001578482850162000117565b91505092915050565b61221c80620001706000396000f3fe60806040526004361061009c5760003560e01c80638da5cb5b116100645780638da5cb5b1461017a578063b1283e77146101a5578063b78d6c1d146101ed578063bf01fe001461022a578063da6b4db814610246578063eb3f75e2146102835761009c565b806314dd5762146100a15780633f4a5d0a146100df5780636faa22a514610108578063724ba40b146101335780638162486b1461014f575b600080fd5b3480156100ad57600080fd5b506100c860048036038101906100c3919061161b565b61029f565b6040516100d6929190611789565b60405180910390f35b3480156100eb57600080fd5b5061010660048036038101906101019190611906565b610451565b005b34801561011457600080fd5b5061011d610649565b60405161012a9190611a00565b60405180910390f35b61014d60048036038101906101489190611a53565b61066f565b005b34801561015b57600080fd5b50610164610caf565b6040516101719190611aa2565b60405180910390f35b34801561018657600080fd5b5061018f610cb5565b60405161019c9190611a00565b60405180910390f35b3480156101b157600080fd5b506101cc60048036038101906101c7919061161b565b610cd9565b6040516101e49c9b9a99989796959493929190611b54565b60405180910390f35b3480156101f957600080fd5b50610214600480360381019061020f919061161b565b610f86565b6040516102219190611a00565b60405180910390f35b610244600480360381019061023f9190611c2a565b610fc5565b005b34801561025257600080fd5b5061026d60048036038101906102689190611c96565b61125d565b60405161027a9190611aa2565b60405180910390f35b61029d60048036038101906102989190611c2a565b611275565b005b6060806000600360008581526020019081526020016000209050806006018160070181805480602002602001604051908101604052809291908181526020016000905b8282101561037e57838290600052602060002090600302016040518060600160405290816000820160009054906101000a900473ffffffffffffffffffffffffffffffffffffffff1673ffffffffffffffffffffffffffffffffffffffff1673ffffffffffffffffffffffffffffffffffffffff16815260200160018201548152602001600282015481525050815260200190600101906102e2565b50505050915080805480602002602001604051908101604052809291908181526020016000905b8282101561044157838290600052602060002090600302016040518060600160405290816000820160009054906101000a900473ffffffffffffffffffffffffffffffffffffffff1673ffffffffffffffffffffffffffffffffffffffff1673ffffffffffffffffffffffffffffffffffffffff16815260200160018201548152602001600282015481525050815260200190600101906103a5565b5050505090509250925050915091565b60008054906101000a900473ffffffffffffffffffffffffffffffffffffffff1673ffffffffffffffffffffffffffffffffffffffff163373ffffffffffffffffffffffffffffffffffffffff16146104df576040517f08c379a00000000000000000000000000000000000000000000000000000000081526004016104d690611d0f565b60405180910390fd5b60004290506000600360006002548152602001908152602001600020905060025481600001819055506002600081548092919061051b90611d5e565b91905055508681600101908051906020019061053892919061150d565b50818160020181905550338160040160006101000a81548173ffffffffffffffffffffffffffffffffffffffff021916908373ffffffffffffffffffffffffffffffffffffffff1602179055508581600501908051906020019061059d92919061150d565b506000816008018190555060008160090181905550600081600a01819055508481600c0190805190602001906105d492919061150d565b508381600d0190805190602001906105ed92919061150d565b508281600301819055507fe51b4ce9e60c0c010fcdef22c23537f954e056004aed674362555a9d11d037386002548884338a6000806000604051610638989796959493929190611dec565b60405180910390a150505050505050565b600160009054906101000a900473ffffffffffffffffffffffffffffffffffffffff1681565b60008054906101000a900473ffffffffffffffffffffffffffffffffffffffff1673ffffffffffffffffffffffffffffffffffffffff163373ffffffffffffffffffffffffffffffffffffffff16146106fd576040517f08c379a00000000000000000000000000000000000000000000000000000000081526004016106f490611d0f565b60405180910390fd5b600060036000848152602001908152602001600020905081156109095760005b8160060180549050811015610903576000826009015483600601838154811061074957610748611e78565b5b90600052602060002090600302016001015484600a015461076a9190611ea7565b6107749190611f30565b905082600601828154811061078c5761078b611e78565b5b906000526020600020906003020160010154816107a99190611f61565b600460008560060185815481106107c3576107c2611e78565b5b906000526020600020906003020160000160009054906101000a900473ffffffffffffffffffffffffffffffffffffffff1673ffffffffffffffffffffffffffffffffffffffff1673ffffffffffffffffffffffffffffffffffffffff168152602001908152602001600020600082825461083e9190611f61565b92505081905550600583600601838154811061085d5761085c611e78565b5b906000526020600020906003020160000160009054906101000a900473ffffffffffffffffffffffffffffffffffffffff169080600181540180825580915050600190039060005260206000200160009091909190916101000a81548173ffffffffffffffffffffffffffffffffffffffff021916908373ffffffffffffffffffffffffffffffffffffffff1602179055505080806108fb90611d5e565b91505061071d565b50610af4565b60005b8160070180549050811015610af257600082600a015483600701838154811061093857610937611e78565b5b90600052602060002090600302016001015484600901546109599190611ea7565b6109639190611f30565b905082600701828154811061097b5761097a611e78565b5b906000526020600020906003020160010154816109989190611f61565b600460008560070185815481106109b2576109b1611e78565b5b906000526020600020906003020160000160009054906101000a900473ffffffffffffffffffffffffffffffffffffffff1673ffffffffffffffffffffffffffffffffffffffff1673ffffffffffffffffffffffffffffffffffffffff1681526020019081526020016000206000828254610a2d9190611f61565b925050819055506005836007018381548110610a4c57610a4b611e78565b5b906000526020600020906003020160000160009054906101000a900473ffffffffffffffffffffffffffffffffffffffff169080600181540180825580915050600190039060005260206000200160009091909190916101000a81548173ffffffffffffffffffffffffffffffffffffffff021916908373ffffffffffffffffffffffffffffffffffffffff160217905550508080610aea90611d5e565b91505061090c565b505b60005b600580549050811015610c7e57600060058281548110610b1a57610b19611e78565b5b9060005260206000200160009054906101000a900473ffffffffffffffffffffffffffffffffffffffff169050600160009054906101000a900473ffffffffffffffffffffffffffffffffffffffff1673ffffffffffffffffffffffffffffffffffffffff1663a9059cbb82600460008573ffffffffffffffffffffffffffffffffffffffff1673ffffffffffffffffffffffffffffffffffffffff168152602001908152602001600020546040518363ffffffff1660e01b8152600401610be392919061200c565b6020604051808303816000875af1158015610c02573d6000803e3d6000fd5b505050506040513d601f19601f82011682018060405250810190610c26919061204a565b50600460008273ffffffffffffffffffffffffffffffffffffffff1673ffffffffffffffffffffffffffffffffffffffff16815260200190815260200160002060009055508080610c7690611d5e565b915050610af7565b5060056000610c8d9190611593565b600181600b0160006101000a81548160ff021916908315150217905550505050565b60025481565b60008054906101000a900473ffffffffffffffffffffffffffffffffffffffff1681565b6003602052806000526040600020600091509050806000015490806001018054610d02906120a6565b80601f0160208091040260200160405190810160405280929190818152602001828054610d2e906120a6565b8015610d7b5780601f10610d5057610100808354040283529160200191610d7b565b820191906000526020600020905b815481529060010190602001808311610d5e57829003601f168201915b5050505050908060020154908060030154908060040160009054906101000a900473ffffffffffffffffffffffffffffffffffffffff1690806005018054610dc2906120a6565b80601f0160208091040260200160405190810160405280929190818152602001828054610dee906120a6565b8015610e3b5780601f10610e1057610100808354040283529160200191610e3b565b820191906000526020600020905b815481529060010190602001808311610e1e57829003601f168201915b50505050509080600801549080600901549080600a01549080600b0160009054906101000a900460ff169080600c018054610e75906120a6565b80601f0160208091040260200160405190810160405280929190818152602001828054610ea1906120a6565b8015610eee5780601f10610ec357610100808354040283529160200191610eee565b820191906000526020600020905b815481529060010190602001808311610ed157829003601f168201915b50505050509080600d018054610f03906120a6565b80601f0160208091040260200160405190810160405280929190818152602001828054610f2f906120a6565b8015610f7c5780601f10610f5157610100808354040283529160200191610f7c565b820191906000526020600020905b815481529060010190602001808311610f5f57829003601f168201915b505050505090508c565b60058181548110610f9657600080fd5b906000526020600020016000915054906101000a900473ffffffffffffffffffffffffffffffffffffffff1681565b80600160009054906101000a900473ffffffffffffffffffffffffffffffffffffffff1673ffffffffffffffffffffffffffffffffffffffff1663dd62ed3e33306040518363ffffffff1660e01b81526004016110239291906120d8565b602060405180830381865afa158015611040573d6000803e3d6000fd5b505050506040513d601f19601f820116820180604052508101906110649190612116565b8111156110a6576040517f08c379a000000000000000000000000000000000000000000000000000000000815260040161109d9061218f565b60405180910390fd5b6000600360008581526020019081526020016000209050600160009054906101000a900473ffffffffffffffffffffffffffffffffffffffff1673ffffffffffffffffffffffffffffffffffffffff166323b872dd3330866040518463ffffffff1660e01b815260040161111c939291906121af565b6020604051808303816000875af115801561113b573d6000803e3d6000fd5b505050506040513d601f19601f8201168201806040525081019061115f919061204a565b50600060405180606001604052803373ffffffffffffffffffffffffffffffffffffffff1681526020018581526020014281525090508382600a0160008282546111a99190611f61565b92505081905550838260080160008282546111c49190611f61565b925050819055508160070181908060018154018082558091505060019003906000526020600020906003020160009091909190915060008201518160000160006101000a81548173ffffffffffffffffffffffffffffffffffffffff021916908373ffffffffffffffffffffffffffffffffffffffff160217905550602082015181600101556040820151816002015550505050505050565b60046020528060005260406000206000915090505481565b80600160009054906101000a900473ffffffffffffffffffffffffffffffffffffffff1673ffffffffffffffffffffffffffffffffffffffff1663dd62ed3e33306040518363ffffffff1660e01b81526004016112d39291906120d8565b602060405180830381865afa1580156112f0573d6000803e3d6000fd5b505050506040513d601f19601f820116820180604052508101906113149190612116565b811115611356576040517f08c379a000000000000000000000000000000000000000000000000000000000815260040161134d9061218f565b60405180910390fd5b6000600360008581526020019081526020016000209050600160009054906101000a900473ffffffffffffffffffffffffffffffffffffffff1673ffffffffffffffffffffffffffffffffffffffff166323b872dd3330866040518463ffffffff1660e01b81526004016113cc939291906121af565b6020604051808303816000875af11580156113eb573d6000803e3d6000fd5b505050506040513d601f19601f8201168201806040525081019061140f919061204a565b50600060405180606001604052803373ffffffffffffffffffffffffffffffffffffffff168152602001858152602001428152509050838260090160008282546114599190611f61565b92505081905550838260080160008282546114749190611f61565b925050819055508160060181908060018154018082558091505060019003906000526020600020906003020160009091909190915060008201518160000160006101000a81548173ffffffffffffffffffffffffffffffffffffffff021916908373ffffffffffffffffffffffffffffffffffffffff160217905550602082015181600101556040820151816002015550505050505050565b828054611519906120a6565b90600052602060002090601f01602090048101928261153b5760008555611582565b82601f1061155457805160ff1916838001178555611582565b82800160010185558215611582579182015b82811115611581578251825591602001919060010190611566565b5b50905061158f91906115b4565b5090565b50805460008255906000526020600020908101906115b191906115b4565b50565b5b808211156115cd5760008160009055506001016115b5565b5090565b6000604051905090565b600080fd5b600080fd5b6000819050919050565b6115f8816115e5565b811461160357600080fd5b50565b600081359050611615816115ef565b92915050565b600060208284031215611631576116306115db565b5b600061163f84828501611606565b91505092915050565b600081519050919050565b600082825260208201905092915050565b6000819050602082019050919050565b600073ffffffffffffffffffffffffffffffffffffffff82169050919050565b600061169f82611674565b9050919050565b6116af81611694565b82525050565b6116be816115e5565b82525050565b6060820160008201516116da60008501826116a6565b5060208201516116ed60208501826116b5565b50604082015161170060408501826116b5565b50505050565b600061171283836116c4565b60608301905092915050565b6000602082019050919050565b600061173682611648565b6117408185611653565b935061174b83611664565b8060005b8381101561177c5781516117638882611706565b975061176e8361171e565b92505060018101905061174f565b5085935050505092915050565b600060408201905081810360008301526117a3818561172b565b905081810360208301526117b7818461172b565b90509392505050565b600080fd5b600080fd5b6000601f19601f8301169050919050565b7f4e487b7100000000000000000000000000000000000000000000000000000000600052604160045260246000fd5b611813826117ca565b810181811067ffffffffffffffff82111715611832576118316117db565b5b80604052505050565b60006118456115d1565b9050611851828261180a565b919050565b600067ffffffffffffffff821115611871576118706117db565b5b61187a826117ca565b9050602081019050919050565b82818337600083830152505050565b60006118a96118a484611856565b61183b565b9050828152602081018484840111156118c5576118c46117c5565b5b6118d0848285611887565b509392505050565b600082601f8301126118ed576118ec6117c0565b5b81356118fd848260208601611896565b91505092915050565b600080600080600060a08688031215611922576119216115db565b5b600086013567ffffffffffffffff8111156119405761193f6115e0565b5b61194c888289016118d8565b955050602086013567ffffffffffffffff81111561196d5761196c6115e0565b5b611979888289016118d8565b945050604086013567ffffffffffffffff81111561199a576119996115e0565b5b6119a6888289016118d8565b935050606086013567ffffffffffffffff8111156119c7576119c66115e0565b5b6119d3888289016118d8565b92505060806119e488828901611606565b9150509295509295909350565b6119fa81611694565b82525050565b6000602082019050611a1560008301846119f1565b92915050565b60008115159050919050565b611a3081611a1b565b8114611a3b57600080fd5b50565b600081359050611a4d81611a27565b92915050565b60008060408385031215611a6a57611a696115db565b5b6000611a7885828601611606565b9250506020611a8985828601611a3e565b9150509250929050565b611a9c816115e5565b82525050565b6000602082019050611ab76000830184611a93565b92915050565b600081519050919050565b600082825260208201905092915050565b60005b83811015611af7578082015181840152602081019050611adc565b83811115611b06576000848401525b50505050565b6000611b1782611abd565b611b218185611ac8565b9350611b31818560208601611ad9565b611b3a816117ca565b840191505092915050565b611b4e81611a1b565b82525050565b600061018082019050611b6a600083018f611a93565b8181036020830152611b7c818e611b0c565b9050611b8b604083018d611a93565b611b98606083018c611a93565b611ba5608083018b6119f1565b81810360a0830152611bb7818a611b0c565b9050611bc660c0830189611a93565b611bd360e0830188611a93565b611be1610100830187611a93565b611bef610120830186611b45565b818103610140830152611c028185611b0c565b9050818103610160830152611c178184611b0c565b90509d9c50505050505050505050505050565b60008060408385031215611c4157611c406115db565b5b6000611c4f85828601611606565b9250506020611c6085828601611606565b9150509250929050565b611c7381611694565b8114611c7e57600080fd5b50565b600081359050611c9081611c6a565b92915050565b600060208284031215611cac57611cab6115db565b5b6000611cba84828501611c81565b91505092915050565b7f4f6e6c79206f776e65722063616e2063616c6c2e000000000000000000000000600082015250565b6000611cf9601483611ac8565b9150611d0482611cc3565b602082019050919050565b60006020820190508181036000830152611d2881611cec565b9050919050565b7f4e487b7100000000000000000000000000000000000000000000000000000000600052601160045260246000fd5b6000611d69826115e5565b91507fffffffffffffffffffffffffffffffffffffffffffffffffffffffffffffffff821415611d9c57611d9b611d2f565b5b600182019050919050565b6000819050919050565b6000819050919050565b6000611dd6611dd1611dcc84611da7565b611db1565b6115e5565b9050919050565b611de681611dbb565b82525050565b600061010082019050611e02600083018b611a93565b8181036020830152611e14818a611b0c565b9050611e236040830189611a93565b611e3060608301886119f1565b8181036080830152611e428187611b0c565b9050611e5160a0830186611ddd565b611e5e60c0830185611ddd565b611e6b60e0830184611ddd565b9998505050505050505050565b7f4e487b7100000000000000000000000000000000000000000000000000000000600052603260045260246000fd5b6000611eb2826115e5565b9150611ebd836115e5565b9250817fffffffffffffffffffffffffffffffffffffffffffffffffffffffffffffffff0483118215151615611ef657611ef5611d2f565b5b828202905092915050565b7f4e487b7100000000000000000000000000000000000000000000000000000000600052601260045260246000fd5b6000611f3b826115e5565b9150611f46836115e5565b925082611f5657611f55611f01565b5b828204905092915050565b6000611f6c826115e5565b9150611f77836115e5565b9250827fffffffffffffffffffffffffffffffffffffffffffffffffffffffffffffffff03821115611fac57611fab611d2f565b5b828201905092915050565b6000611fd2611fcd611fc884611674565b611db1565b611674565b9050919050565b6000611fe482611fb7565b9050919050565b6000611ff682611fd9565b9050919050565b61200681611feb565b82525050565b60006040820190506120216000830185611ffd565b61202e6020830184611a93565b9392505050565b60008151905061204481611a27565b92915050565b6000602082840312156120605761205f6115db565b5b600061206e84828501612035565b91505092915050565b7f4e487b7100000000000000000000000000000000000000000000000000000000600052602260045260246000fd5b600060028204905060018216806120be57607f821691505b602082108114156120d2576120d1612077565b5b50919050565b60006040820190506120ed60008301856119f1565b6120fa60208301846119f1565b9392505050565b600081519050612110816115ef565b92915050565b60006020828403121561212c5761212b6115db565b5b600061213a84828501612101565b91505092915050565b7f4e6f7420616c6c6f77656420746f207370656e642074686973206d7563680000600082015250565b6000612179601e83611ac8565b915061218482612143565b602082019050919050565b600060208201905081810360008301526121a88161216c565b9050919050565b60006060820190506121c460008301866119f1565b6121d160208301856119f1565b6121de6040830184611a93565b94935050505056fea26469706673582212206688af29b97755b0387fdc56ad2d14cb883e1e727fc2a9f66c972a107754022a64736f6c634300080c0033",
  "immutableReferences": {},
  "source": "// SPDX-License-Identifier: MIT\npragma solidity ^0.8.6;\nimport \"@openzeppelin/contracts/token/ERC20/ERC20.sol\";\n\ncontract Polymarket {\n   address public owner;\n   address public polyToken;\n\n   uint256 public totalMarkets = 0;\n   \n   constructor(address _polyToken) {\n      owner = msg.sender;\n      polyToken = _polyToken;\n   }\n\n   mapping(uint256 => Markets) public markets;\n\n   struct Markets {\n      uint256 id;\n      string market;\n      uint256 timestamp;\n      uint256 endTimestamp;\n      address createdBy;\n      string creatorImageHash;\n      AmountAdded[] yesCount;\n      AmountAdded[] noCount;\n      uint256 totalAmount;\n      uint256 totalYesAmount;\n      uint256 totalNoAmount;\n      bool eventCompleted;\n      string description;\n      string resolverUrl;\n   }\n\n   struct AmountAdded {\n      address user;\n      uint256 amount;\n      uint256 timestamp;\n   }\n\n   mapping(address => uint256) public winningAmount;\n   address[] public winningAddresses;\n\n   event MarketCreated(\n      uint256 id,\n      string market,\n      uint256 timestamp,\n      address createdBy,\n      string creatorImageHash,\n      uint256 totalAmount,\n      uint256 totalYesAmount,\n      uint256 totalNoAmount\n   );\n\n   modifier onlyOwner() {\n      require(msg.sender == owner, \"Only owner can call.\");\n      _;\n   }\n   \n   function createMarket(string memory _market, \n                          string memory _creatorImageHash, \n                          string memory _description, \n                          string memory _resolverUrl, \n                          uint256 _endTimestamp) public onlyOwner {\n  \n      uint256 timestamp = block.timestamp;\n\n     Markets storage market = markets[totalMarkets];\n     market.id = totalMarkets;\n     totalMarkets++;\n     market.market = _market;\n     market.timestamp = timestamp;\n     market.createdBy = msg.sender;\n     market.creatorImageHash = _creatorImageHash;\n     market.totalAmount = 0;\n     market.totalYesAmount = 0;\n     market.totalNoAmount = 0;\n     market.description = _description;\n     market.resolverUrl = _resolverUrl;\n     market.endTimestamp = _endTimestamp;\n\n     emit MarketCreated(totalMarkets,\n                        _market,\n                        timestamp,\n                        msg.sender,\n                        _creatorImageHash,\n                        0,\n                        0,\n                        0);\n   }\n\n   modifier allowedToSpend(uint256 _value) {\n      require(_value <= ERC20(polyToken).allowance(msg.sender, address(this)), \"Not allowed to spend this much\");\n      _;\n   }\n\n   function addYesBet(uint256 _marketId, uint256 _value) public payable allowedToSpend(_value) {\n      Markets storage market = markets[_marketId];\n      ERC20(polyToken).transferFrom(msg.sender, address(this), _value);\n\n      AmountAdded memory amountAdded = AmountAdded(msg.sender, _value, block.timestamp);\n\n      market.totalYesAmount += _value;\n      market.totalAmount += _value;\n      market.yesCount.push(amountAdded);\n   }\n\n   function addNoBet(uint256 _marketId, uint256 _value) public payable allowedToSpend(_value) {\n      Markets storage market = markets[_marketId];\n      ERC20(polyToken).transferFrom(msg.sender, address(this), _value);\n\n      AmountAdded memory amountAdded = AmountAdded(msg.sender, _value, block.timestamp);\n\n      market.totalNoAmount += _value;\n      market.totalAmount += _value;\n      market.noCount.push(amountAdded);\n   }\n\n   function getGraphData(uint256 _marketId) public view returns(AmountAdded[] memory, AmountAdded [] memory) {\n      Markets storage market = markets[_marketId];\n      return (market.yesCount, market.noCount);\n   }\n\n   function distributeWinningAmount(uint256 _marketId, bool eventOutcome) public payable onlyOwner {\n      Markets storage market = markets[_marketId];\n      if(eventOutcome) {\n         for (uint256 i = 0; i < market.yesCount.length; i++) {\n            uint256 amount = (market.totalNoAmount * market.yesCount[i].amount) / market.totalYesAmount;\n            winningAmount[market.yesCount[i].user] += (amount + market.yesCount[i].amount);\n            winningAddresses.push(market.yesCount[i].user);\n         }\n\n      } else {\n         for (uint256 i = 0; i < market.noCount.length; i++) {\n            uint256 amount = (market.totalYesAmount * market.noCount[i].amount) / market.totalNoAmount;\n            winningAmount[market.noCount[i].user] += (amount + market.noCount[i].amount);\n            winningAddresses.push(market.noCount[i].user);\n         }\n\n      }\n\n      for(uint256 i = 0; i < winningAddresses.length; i++) {\n         address payable _address = payable(winningAddresses[i]);\n         ERC20(polyToken).transfer(_address, winningAmount[_address]);\n         delete winningAmount[_address];\n      }\n      delete winningAddresses;\n      market.eventCompleted = true;\n   }\n\n\n}\n",
  "sourcePath": "/home/nissimzerbib/Programmation/PolygonAcademy/polymarket/contracts/Polymarket.sol",
  "compiler": {
    "name": "solc",
    "version": "0.8.12+commit.f00d7308.Emscripten.clang"
  },
  "schemaVersion": "3.4.5",
  "updatedAt": "2022-03-01T11:08:09.416Z",
  "devdoc": {
    "kind": "dev",
    "methods": {},
    "version": 1
  },
  "userdoc": {
    "kind": "user",
    "methods": {},
    "version": 1
  }
}