{
  "contractName": "PolyToken",
  "abi": [
    {
      "inputs": [],
      "stateMutability": "nonpayable",
      "type": "constructor"
    },
    {
      "anonymous": false,
      "inputs": [
        {
          "indexed": true,
          "internalType": "address",
          "name": "owner",
          "type": "address"
        },
        {
          "indexed": true,
          "internalType": "address",
          "name": "spender",
          "type": "address"
        },
        {
          "indexed": false,
          "internalType": "uint256",
          "name": "value",
          "type": "uint256"
        }
      ],
      "name": "Approval",
      "type": "event"
    },
    {
      "anonymous": false,
      "inputs": [
        {
          "indexed": true,
          "internalType": "address",
          "name": "from",
          "type": "address"
        },
        {
          "indexed": true,
          "internalType": "address",
          "name": "to",
          "type": "address"
        },
        {
          "indexed": false,
          "internalType": "uint256",
          "name": "value",
          "type": "uint256"
        }
      ],
      "name": "Transfer",
      "type": "event"
    },
    {
      "inputs": [
        {
          "internalType": "address",
          "name": "owner",
          "type": "address"
        },
        {
          "internalType": "address",
          "name": "spender",
          "type": "address"
        }
      ],
      "name": "allowance",
      "outputs": [
        {
          "internalType": "uint256",
          "name": "",
          "type": "uint256"
        }
      ],
      "stateMutability": "view",
      "type": "function"
    },
    {
      "inputs": [
        {
          "internalType": "address",
          "name": "spender",
          "type": "address"
        },
        {
          "internalType": "uint256",
          "name": "amount",
          "type": "uint256"
        }
      ],
      "name": "approve",
      "outputs": [
        {
          "internalType": "bool",
          "name": "",
          "type": "bool"
        }
      ],
      "stateMutability": "nonpayable",
      "type": "function"
    },
    {
      "inputs": [
        {
          "internalType": "address",
          "name": "account",
          "type": "address"
        }
      ],
      "name": "balanceOf",
      "outputs": [
        {
          "internalType": "uint256",
          "name": "",
          "type": "uint256"
        }
      ],
      "stateMutability": "view",
      "type": "function"
    },
    {
      "inputs": [],
      "name": "decimals",
      "outputs": [
        {
          "internalType": "uint8",
          "name": "",
          "type": "uint8"
        }
      ],
      "stateMutability": "view",
      "type": "function"
    },
    {
      "inputs": [
        {
          "internalType": "address",
          "name": "spender",
          "type": "address"
        },
        {
          "internalType": "uint256",
          "name": "subtractedValue",
          "type": "uint256"
        }
      ],
      "name": "decreaseAllowance",
      "outputs": [
        {
          "internalType": "bool",
          "name": "",
          "type": "bool"
        }
      ],
      "stateMutability": "nonpayable",
      "type": "function"
    },
    {
      "inputs": [
        {
          "internalType": "address",
          "name": "spender",
          "type": "address"
        },
        {
          "internalType": "uint256",
          "name": "addedValue",
          "type": "uint256"
        }
      ],
      "name": "increaseAllowance",
      "outputs": [
        {
          "internalType": "bool",
          "name": "",
          "type": "bool"
        }
      ],
      "stateMutability": "nonpayable",
      "type": "function"
    },
    {
      "inputs": [],
      "name": "name",
      "outputs": [
        {
          "internalType": "string",
          "name": "",
          "type": "string"
        }
      ],
      "stateMutability": "view",
      "type": "function"
    },
    {
      "inputs": [],
      "name": "owner",
      "outputs": [
        {
          "internalType": "address",
          "name": "",
          "type": "address"
        }
      ],
      "stateMutability": "view",
      "type": "function"
    },
    {
      "inputs": [],
      "name": "symbol",
      "outputs": [
        {
          "internalType": "string",
          "name": "",
          "type": "string"
        }
      ],
      "stateMutability": "view",
      "type": "function"
    },
    {
      "inputs": [],
      "name": "totalSupply",
      "outputs": [
        {
          "internalType": "uint256",
          "name": "",
          "type": "uint256"
        }
      ],
      "stateMutability": "view",
      "type": "function"
    },
    {
      "inputs": [
        {
          "internalType": "address",
          "name": "to",
          "type": "address"
        },
        {
          "internalType": "uint256",
          "name": "amount",
          "type": "uint256"
        }
      ],
      "name": "transfer",
      "outputs": [
        {
          "internalType": "bool",
          "name": "",
          "type": "bool"
        }
      ],
      "stateMutability": "nonpayable",
      "type": "function"
    },
    {
      "inputs": [
        {
          "internalType": "address",
          "name": "from",
          "type": "address"
        },
        {
          "internalType": "address",
          "name": "to",
          "type": "address"
        },
        {
          "internalType": "uint256",
          "name": "amount",
          "type": "uint256"
        }
      ],
      "name": "transferFrom",
      "outputs": [
        {
          "internalType": "bool",
          "name": "",
          "type": "bool"
        }
      ],
      "stateMutability": "nonpayable",
      "type": "function"
    },
    {
      "inputs": [
        {
          "internalType": "address",
          "name": "to",
          "type": "address"
        },
        {
          "internalType": "uint256",
          "name": "amount",
          "type": "uint256"
        }
      ],
      "name": "mint",
      "outputs": [],
      "stateMutability": "nonpayable",
      "type": "function"
    }
  ],
  "bytecode": "0x60806040523480156200001157600080fd5b506040518060400160405280600a81526020017f506f6c7920546f6b656e000000000000000000000000000000000000000000008152506040518060400160405280600481526020017f504f4c590000000000000000000000000000000000000000000000000000000081525081600390805190602001906200009692919062000298565b508060049080519060200190620000af92919062000298565b50505033600560006101000a81548173ffffffffffffffffffffffffffffffffffffffff021916908373ffffffffffffffffffffffffffffffffffffffff1602179055506200010f3369152d02c7e14af68000006200011560201b60201c565b620004f4565b600073ffffffffffffffffffffffffffffffffffffffff168273ffffffffffffffffffffffffffffffffffffffff16141562000188576040517f08c379a00000000000000000000000000000000000000000000000000000000081526004016200017f90620003a9565b60405180910390fd5b6200019c600083836200028e60201b60201c565b8060026000828254620001b0919062000404565b92505081905550806000808473ffffffffffffffffffffffffffffffffffffffff1673ffffffffffffffffffffffffffffffffffffffff168152602001908152602001600020600082825462000207919062000404565b925050819055508173ffffffffffffffffffffffffffffffffffffffff16600073ffffffffffffffffffffffffffffffffffffffff167fddf252ad1be2c89b69c2b068fc378daa952ba7f163c4a11628f55a4df523b3ef836040516200026e919062000472565b60405180910390a36200028a600083836200029360201b60201c565b5050565b505050565b505050565b828054620002a690620004be565b90600052602060002090601f016020900481019282620002ca576000855562000316565b82601f10620002e557805160ff191683800117855562000316565b8280016001018555821562000316579182015b8281111562000315578251825591602001919060010190620002f8565b5b50905062000325919062000329565b5090565b5b80821115620003445760008160009055506001016200032a565b5090565b600082825260208201905092915050565b7f45524332303a206d696e7420746f20746865207a65726f206164647265737300600082015250565b600062000391601f8362000348565b91506200039e8262000359565b602082019050919050565b60006020820190508181036000830152620003c48162000382565b9050919050565b6000819050919050565b7f4e487b7100000000000000000000000000000000000000000000000000000000600052601160045260246000fd5b60006200041182620003cb565b91506200041e83620003cb565b9250827fffffffffffffffffffffffffffffffffffffffffffffffffffffffffffffffff03821115620004565762000455620003d5565b5b828201905092915050565b6200046c81620003cb565b82525050565b600060208201905062000489600083018462000461565b92915050565b7f4e487b7100000000000000000000000000000000000000000000000000000000600052602260045260246000fd5b60006002820490506001821680620004d757607f821691505b60208210811415620004ee57620004ed6200048f565b5b50919050565b6116d480620005046000396000f3fe608060405234801561001057600080fd5b50600436106100cf5760003560e01c806340c10f191161008c57806395d89b411161006657806395d89b4114610228578063a457c2d714610246578063a9059cbb14610276578063dd62ed3e146102a6576100cf565b806340c10f19146101be57806370a08231146101da5780638da5cb5b1461020a576100cf565b806306fdde03146100d4578063095ea7b3146100f257806318160ddd1461012257806323b872dd14610140578063313ce56714610170578063395093511461018e575b600080fd5b6100dc6102d6565b6040516100e99190610e8c565b60405180910390f35b61010c60048036038101906101079190610f47565b610368565b6040516101199190610fa2565b60405180910390f35b61012a61038b565b6040516101379190610fcc565b60405180910390f35b61015a60048036038101906101559190610fe7565b610395565b6040516101679190610fa2565b60405180910390f35b6101786103c4565b6040516101859190611056565b60405180910390f35b6101a860048036038101906101a39190610f47565b6103cd565b6040516101b59190610fa2565b60405180910390f35b6101d860048036038101906101d39190610f47565b610477565b005b6101f460048036038101906101ef9190611071565b610515565b6040516102019190610fcc565b60405180910390f35b61021261055d565b60405161021f91906110ad565b60405180910390f35b610230610583565b60405161023d9190610e8c565b60405180910390f35b610260600480360381019061025b9190610f47565b610615565b60405161026d9190610fa2565b60405180910390f35b610290600480360381019061028b9190610f47565b6106ff565b60405161029d9190610fa2565b60405180910390f35b6102c060048036038101906102bb91906110c8565b610722565b6040516102cd9190610fcc565b60405180910390f35b6060600380546102e590611137565b80601f016020809104026020016040519081016040528092919081815260200182805461031190611137565b801561035e5780601f106103335761010080835404028352916020019161035e565b820191906000526020600020905b81548152906001019060200180831161034157829003601f168201915b5050505050905090565b6000806103736107a9565b90506103808185856107b1565b600191505092915050565b6000600254905090565b6000806103a06107a9565b90506103ad85828561097c565b6103b8858585610a08565b60019150509392505050565b60006012905090565b6000806103d86107a9565b905061046c818585600160008673ffffffffffffffffffffffffffffffffffffffff1673ffffffffffffffffffffffffffffffffffffffff16815260200190815260200160002060008973ffffffffffffffffffffffffffffffffffffffff1673ffffffffffffffffffffffffffffffffffffffff168152602001908152602001600020546104679190611198565b6107b1565b600191505092915050565b600560009054906101000a900473ffffffffffffffffffffffffffffffffffffffff1673ffffffffffffffffffffffffffffffffffffffff163373ffffffffffffffffffffffffffffffffffffffff1614610507576040517f08c379a00000000000000000000000000000000000000000000000000000000081526004016104fe9061123a565b60405180910390fd5b6105118282610c89565b5050565b60008060008373ffffffffffffffffffffffffffffffffffffffff1673ffffffffffffffffffffffffffffffffffffffff168152602001908152602001600020549050919050565b600560009054906101000a900473ffffffffffffffffffffffffffffffffffffffff1681565b60606004805461059290611137565b80601f01602080910402602001604051908101604052809291908181526020018280546105be90611137565b801561060b5780601f106105e05761010080835404028352916020019161060b565b820191906000526020600020905b8154815290600101906020018083116105ee57829003601f168201915b5050505050905090565b6000806106206107a9565b90506000600160008373ffffffffffffffffffffffffffffffffffffffff1673ffffffffffffffffffffffffffffffffffffffff16815260200190815260200160002060008673ffffffffffffffffffffffffffffffffffffffff1673ffffffffffffffffffffffffffffffffffffffff168152602001908152602001600020549050838110156106e6576040517f08c379a00000000000000000000000000000000000000000000000000000000081526004016106dd906112cc565b60405180910390fd5b6106f382868684036107b1565b60019250505092915050565b60008061070a6107a9565b9050610717818585610a08565b600191505092915050565b6000600160008473ffffffffffffffffffffffffffffffffffffffff1673ffffffffffffffffffffffffffffffffffffffff16815260200190815260200160002060008373ffffffffffffffffffffffffffffffffffffffff1673ffffffffffffffffffffffffffffffffffffffff16815260200190815260200160002054905092915050565b600033905090565b600073ffffffffffffffffffffffffffffffffffffffff168373ffffffffffffffffffffffffffffffffffffffff161415610821576040517f08c379a00000000000000000000000000000000000000000000000000000000081526004016108189061135e565b60405180910390fd5b600073ffffffffffffffffffffffffffffffffffffffff168273ffffffffffffffffffffffffffffffffffffffff161415610891576040517f08c379a0000000000000000000000000000000000000000000000000000000008152600401610888906113f0565b60405180910390fd5b80600160008573ffffffffffffffffffffffffffffffffffffffff1673ffffffffffffffffffffffffffffffffffffffff16815260200190815260200160002060008473ffffffffffffffffffffffffffffffffffffffff1673ffffffffffffffffffffffffffffffffffffffff168152602001908152602001600020819055508173ffffffffffffffffffffffffffffffffffffffff168373ffffffffffffffffffffffffffffffffffffffff167f8c5be1e5ebec7d5bd14f71427d1e84f3dd0314c0f7b2291e5b200ac8c7c3b9258360405161096f9190610fcc565b60405180910390a3505050565b60006109888484610722565b90507fffffffffffffffffffffffffffffffffffffffffffffffffffffffffffffffff8114610a0257818110156109f4576040517f08c379a00000000000000000000000000000000000000000000000000000000081526004016109eb9061145c565b60405180910390fd5b610a0184848484036107b1565b5b50505050565b600073ffffffffffffffffffffffffffffffffffffffff168373ffffffffffffffffffffffffffffffffffffffff161415610a78576040517f08c379a0000000000000000000000000000000000000000000000000000000008152600401610a6f906114ee565b60405180910390fd5b600073ffffffffffffffffffffffffffffffffffffffff168273ffffffffffffffffffffffffffffffffffffffff161415610ae8576040517f08c379a0000000000000000000000000000000000000000000000000000000008152600401610adf90611580565b60405180910390fd5b610af3838383610de9565b60008060008573ffffffffffffffffffffffffffffffffffffffff1673ffffffffffffffffffffffffffffffffffffffff16815260200190815260200160002054905081811015610b79576040517f08c379a0000000000000000000000000000000000000000000000000000000008152600401610b7090611612565b60405180910390fd5b8181036000808673ffffffffffffffffffffffffffffffffffffffff1673ffffffffffffffffffffffffffffffffffffffff16815260200190815260200160002081905550816000808573ffffffffffffffffffffffffffffffffffffffff1673ffffffffffffffffffffffffffffffffffffffff1681526020019081526020016000206000828254610c0c9190611198565b925050819055508273ffffffffffffffffffffffffffffffffffffffff168473ffffffffffffffffffffffffffffffffffffffff167fddf252ad1be2c89b69c2b068fc378daa952ba7f163c4a11628f55a4df523b3ef84604051610c709190610fcc565b60405180910390a3610c83848484610dee565b50505050565b600073ffffffffffffffffffffffffffffffffffffffff168273ffffffffffffffffffffffffffffffffffffffff161415610cf9576040517f08c379a0000000000000000000000000000000000000000000000000000000008152600401610cf09061167e565b60405180910390fd5b610d0560008383610de9565b8060026000828254610d179190611198565b92505081905550806000808473ffffffffffffffffffffffffffffffffffffffff1673ffffffffffffffffffffffffffffffffffffffff1681526020019081526020016000206000828254610d6c9190611198565b925050819055508173ffffffffffffffffffffffffffffffffffffffff16600073ffffffffffffffffffffffffffffffffffffffff167fddf252ad1be2c89b69c2b068fc378daa952ba7f163c4a11628f55a4df523b3ef83604051610dd19190610fcc565b60405180910390a3610de560008383610dee565b5050565b505050565b505050565b600081519050919050565b600082825260208201905092915050565b60005b83811015610e2d578082015181840152602081019050610e12565b83811115610e3c576000848401525b50505050565b6000601f19601f8301169050919050565b6000610e5e82610df3565b610e688185610dfe565b9350610e78818560208601610e0f565b610e8181610e42565b840191505092915050565b60006020820190508181036000830152610ea68184610e53565b905092915050565b600080fd5b600073ffffffffffffffffffffffffffffffffffffffff82169050919050565b6000610ede82610eb3565b9050919050565b610eee81610ed3565b8114610ef957600080fd5b50565b600081359050610f0b81610ee5565b92915050565b6000819050919050565b610f2481610f11565b8114610f2f57600080fd5b50565b600081359050610f4181610f1b565b92915050565b60008060408385031215610f5e57610f5d610eae565b5b6000610f6c85828601610efc565b9250506020610f7d85828601610f32565b9150509250929050565b60008115159050919050565b610f9c81610f87565b82525050565b6000602082019050610fb76000830184610f93565b92915050565b610fc681610f11565b82525050565b6000602082019050610fe16000830184610fbd565b92915050565b60008060006060848603121561100057610fff610eae565b5b600061100e86828701610efc565b935050602061101f86828701610efc565b925050604061103086828701610f32565b9150509250925092565b600060ff82169050919050565b6110508161103a565b82525050565b600060208201905061106b6000830184611047565b92915050565b60006020828403121561108757611086610eae565b5b600061109584828501610efc565b91505092915050565b6110a781610ed3565b82525050565b60006020820190506110c2600083018461109e565b92915050565b600080604083850312156110df576110de610eae565b5b60006110ed85828601610efc565b92505060206110fe85828601610efc565b9150509250929050565b7f4e487b7100000000000000000000000000000000000000000000000000000000600052602260045260246000fd5b6000600282049050600182168061114f57607f821691505b6020821081141561116357611162611108565b5b50919050565b7f4e487b7100000000000000000000000000000000000000000000000000000000600052601160045260246000fd5b60006111a382610f11565b91506111ae83610f11565b9250827fffffffffffffffffffffffffffffffffffffffffffffffffffffffffffffffff038211156111e3576111e2611169565b5b828201905092915050565b7f4f6e6c79206f776e65722063616e2063616c6c2e000000000000000000000000600082015250565b6000611224601483610dfe565b915061122f826111ee565b602082019050919050565b6000602082019050818103600083015261125381611217565b9050919050565b7f45524332303a2064656372656173656420616c6c6f77616e63652062656c6f7760008201527f207a65726f000000000000000000000000000000000000000000000000000000602082015250565b60006112b6602583610dfe565b91506112c18261125a565b604082019050919050565b600060208201905081810360008301526112e5816112a9565b9050919050565b7f45524332303a20617070726f76652066726f6d20746865207a65726f2061646460008201527f7265737300000000000000000000000000000000000000000000000000000000602082015250565b6000611348602483610dfe565b9150611353826112ec565b604082019050919050565b600060208201905081810360008301526113778161133b565b9050919050565b7f45524332303a20617070726f766520746f20746865207a65726f20616464726560008201527f7373000000000000000000000000000000000000000000000000000000000000602082015250565b60006113da602283610dfe565b91506113e58261137e565b604082019050919050565b60006020820190508181036000830152611409816113cd565b9050919050565b7f45524332303a20696e73756666696369656e7420616c6c6f77616e6365000000600082015250565b6000611446601d83610dfe565b915061145182611410565b602082019050919050565b6000602082019050818103600083015261147581611439565b9050919050565b7f45524332303a207472616e736665722066726f6d20746865207a65726f20616460008201527f6472657373000000000000000000000000000000000000000000000000000000602082015250565b60006114d8602583610dfe565b91506114e38261147c565b604082019050919050565b60006020820190508181036000830152611507816114cb565b9050919050565b7f45524332303a207472616e7366657220746f20746865207a65726f206164647260008201527f6573730000000000000000000000000000000000000000000000000000000000602082015250565b600061156a602383610dfe565b91506115758261150e565b604082019050919050565b600060208201905081810360008301526115998161155d565b9050919050565b7f45524332303a207472616e7366657220616d6f756e742065786365656473206260008201527f616c616e63650000000000000000000000000000000000000000000000000000602082015250565b60006115fc602683610dfe565b9150611607826115a0565b604082019050919050565b6000602082019050818103600083015261162b816115ef565b9050919050565b7f45524332303a206d696e7420746f20746865207a65726f206164647265737300600082015250565b6000611668601f83610dfe565b915061167382611632565b602082019050919050565b600060208201905081810360008301526116978161165b565b905091905056fea2646970667358221220512112a70f8a2a03a4755d96e8c94e1ba5fde1f96cb523da1e42283bef33c4ee64736f6c634300080c0033",
  "immutableReferences": {},
  "source": "// SPDX-License-Identifier: GPL-3.0\npragma solidity ^0.8.6;\nimport \"@openzeppelin/contracts/token/ERC20/ERC20.sol\";\n\ncontract PolyToken is ERC20 {\n   address public owner;\n\n   constructor() ERC20(\"Poly Token\", \"POLY\") {\n      owner = msg.sender;\n      _mint(msg.sender, 100_000 * 10**18);\n   }\n\n   modifier onlyOwner() {\n      require(msg.sender == owner, \"Only owner can call.\");\n      _;\n   }\n   function mint(address to, uint256 amount) external onlyOwner {\n      _mint(to, amount);\n   }\n}\n",
  "sourcePath": "/home/nissimzerbib/Programmation/PolygonAcademy/polymarket/contracts/PolyToken.sol",
  "compiler": {
    "name": "solc",
    "version": "0.8.12+commit.f00d7308.Emscripten.clang"
  },
  "schemaVersion": "3.4.5",
  "updatedAt": "2022-03-01T11:08:09.413Z",
  "devdoc": {
    "kind": "dev",
    "methods": {
      "allowance(address,address)": {
        "details": "See {IERC20-allowance}."
      },
      "approve(address,uint256)": {
        "details": "See {IERC20-approve}. NOTE: If `amount` is the maximum `uint256`, the allowance is not updated on `transferFrom`. This is semantically equivalent to an infinite approval. Requirements: - `spender` cannot be the zero address."
      },
      "balanceOf(address)": {
        "details": "See {IERC20-balanceOf}."
      },
      "decimals()": {
        "details": "Returns the number of decimals used to get its user representation. For example, if `decimals` equals `2`, a balance of `505` tokens should be displayed to a user as `5.05` (`505 / 10 ** 2`). Tokens usually opt for a value of 18, imitating the relationship between Ether and Wei. This is the value {ERC20} uses, unless this function is overridden; NOTE: This information is only used for _display_ purposes: it in no way affects any of the arithmetic of the contract, including {IERC20-balanceOf} and {IERC20-transfer}."
      },
      "decreaseAllowance(address,uint256)": {
        "details": "Atomically decreases the allowance granted to `spender` by the caller. This is an alternative to {approve} that can be used as a mitigation for problems described in {IERC20-approve}. Emits an {Approval} event indicating the updated allowance. Requirements: - `spender` cannot be the zero address. - `spender` must have allowance for the caller of at least `subtractedValue`."
      },
      "increaseAllowance(address,uint256)": {
        "details": "Atomically increases the allowance granted to `spender` by the caller. This is an alternative to {approve} that can be used as a mitigation for problems described in {IERC20-approve}. Emits an {Approval} event indicating the updated allowance. Requirements: - `spender` cannot be the zero address."
      },
      "name()": {
        "details": "Returns the name of the token."
      },
      "symbol()": {
        "details": "Returns the symbol of the token, usually a shorter version of the name."
      },
      "totalSupply()": {
        "details": "See {IERC20-totalSupply}."
      },
      "transfer(address,uint256)": {
        "details": "See {IERC20-transfer}. Requirements: - `to` cannot be the zero address. - the caller must have a balance of at least `amount`."
      },
      "transferFrom(address,address,uint256)": {
        "details": "See {IERC20-transferFrom}. Emits an {Approval} event indicating the updated allowance. This is not required by the EIP. See the note at the beginning of {ERC20}. NOTE: Does not update the allowance if the current allowance is the maximum `uint256`. Requirements: - `from` and `to` cannot be the zero address. - `from` must have a balance of at least `amount`. - the caller must have allowance for ``from``'s tokens of at least `amount`."
      }
    },
    "version": 1
  },
  "userdoc": {
    "kind": "user",
    "methods": {},
    "version": 1
  }
}